:100000000C9458000C9480000C9480000C94800098
:100010000C9480000C9480000C9480000C94800060
:100020000C9480000C9480000C9480000C94800050
:100030000C9480000C9480000C9480000C94800040
:100040000C94BA080C9480000C942A090C940409AE
:100050000C9480000C9480000C9480000C94800020
:100060000C945C090C94800000000000250028001E
:100070002B00040404040404040402020202020229
:10008000030303030303010204081020408001025C
:1000900004081020010204081020000000080002DB
:1000A00001000003040700000000000000007B0ABC
:1000B00011241FBECFEFD8E0DEBFCDBF11E0A0E01E
:1000C000B1E0E8E2FCE102C005900D92AA34B1076C
:1000D000D9F722E0AAE4B1E001C01D92A93CB20721
:1000E000E1F710E0C8E5D0E004C02197FE010E94CE
:1000F000E70CC735D107C9F70E94B40A0C94120E59
:100100000C94000090E0FC01E656FF4F2491FC01A6
:10011000EA57FF4F3491FC01EE58FF4FE491EE2374
:10012000C9F0222339F0233001F1A8F4213019F16C
:10013000223029F1F0E0EE0FFF1FE859FF4FA591A3
:10014000B4918FB7F894EC91611126C030953E239D
:100150003C938FBF08952730A9F02830C9F0243090
:1001600049F7809180008F7D03C0809180008F7758
:1001700080938000DFCF84B58F7784BDDBCF84B5DB
:100180008F7DFBCF8091B0008F778093B000D2CF6E
:100190008091B0008F7DF9CF3E2BDACF833091056F
:1001A00028F0880F991F04970197F1F708953FB73A
:1001B000F8948091C0019091C101A091C201B091C9
:1001C000C30126B5A89B05C02F3F19F00196A11DBC
:1001D000B11D3FBFBA2FA92F982F8827BC01CD0191
:1001E000620F711D811D911D43E0660F771F881FEF
:1001F000991F4A95D1F708958F929F92AF92BF921F
:10020000CF92DF92EF92FF924B015C010E94D700E8
:100210006B017C010E94D7006C197D098E099F0932
:10022000683E734081059105A8F321E0821A910888
:10023000A108B10888EEC80E83E0D81EE11CF11CAD
:1002400081149104A104B10429F7FF90EF90DF908D
:10025000CF90BF90AF909F908F900895089508958C
:10026000AF92BF92CF92DF92EF92FF920F931F93C4
:10027000CF93DF936C017B018B01040F151FEB0102
:100280005E01AE18BF08C017D10759F06991D601B9
:10029000ED91FC910190F081E02DC6010995892B2B
:1002A00079F7C501DF91CF911F910F91FF90EF90EA
:1002B000DF90CF90BF90AF900895FC01538D448D97
:1002C000252F30E0842F90E0821B930B541710F001
:1002D000CF96089501970895FC01918D828D98170E
:1002E00061F0A28DAE0FBF2FB11D5D968C91928DE6
:1002F0009F5F9F73928F90E008958FEF9FEF089517
:10030000FC01918D828D981731F0828DE80FF11DDF
:10031000858D90E008958FEF9FEF0895FC01918DFA
:10032000228D892F90E0805C9F4F821B91098F73F3
:100330009927089584E192E00E948E0121E0892BA3
:1003400009F420E0822F0895CF93C1E084E192E088
:100350000E948E01892B49F084E192E00E946C0199
:100360008134A1F7C093BA01F1CFCF9108950E94D3
:100370009A0181110C94A4010895FC01A48DA80F89
:10038000B92FB11DA35ABF4F2C91848D90E00196D7
:100390008F739927848FA689B7892C93A089B189F7
:1003A0008C91837080648C93938D848D981306C098
:1003B0000288F389E02D80818F7D80830895EF92FC
:1003C000FF920F931F93CF93DF93EC0181E0888F0F
:1003D0009B8D8C8D98131AC0E889F989808185FFDF
:1003E00015C09FB7F894EE89FF896083E889F98981
:1003F00080818370806480839FBF81E090E0DF9183
:10040000CF911F910F91FF90EF900895F62E0B8DD5
:1004100010E00F5F1F4F0F731127E02E8C8D8E1190
:100420000CC00FB607FCFACFE889F989808185FFF7
:10043000F5CFCE010E94BD01F1CFEB8DEC0FFD2F6A
:10044000F11DE35AFF4FF0829FB7F8940B8FEA89B2
:10045000FB8980818062CFCFCF93DF93EC01888DC1
:100460008823B9F0AA89BB89E889F9898C9185FD2F
:1004700003C0808186FD0DC00FB607FCF7CF8C91BD
:1004800085FFF2CF808185FFEDCFCE010E94BD01B7
:10049000E9CFDF91CF91089520918B01260F33276B
:1004A000331F21323105ECF42091EA01FC0190E088
:1004B00080E0243069F082E00895A0918B012191C1
:1004C000AC0145595E4FA40FB52FB11D2C93019679
:1004D000861798F380918B01680F60938B0180E001
:1004E000089581E008951092EA0181E08093E90186
:1004F0001092C40161E082E10E94820061E083E128
:100500000E948200E9EBF0E080818E7F8083808111
:100510008D7F808380E28093B80085E48093BC0067
:100520000895CF93DF9391E090936A018823B9F007
:10053000C091B800D091BA008091BC008A7B8093B2
:10054000BC0060E082E10E94820060E083E10E94E2
:1005500082000E947302D093BA00C093B800DF916A
:10056000CF9108958F929F92AF92BF92CF92DF92D8
:10057000EF92FF920F931F93CF93DF93D0911302CB
:10058000D13208F0D7C0182FC09112020E94D700B4
:100590006B017C018091EA0181116BC082E0809344
:1005A000EA011093E9018FEF8093E8011092E701CF
:1005B000D093E601A2EFB1E0E6ECF1E080E0D813E1
:1005C00091C01092C5018091C501CC0FC82BC0937A
:1005D000C5018091C401813009F088C01092C40126
:1005E0000E94D7006B017C018091C5018093BB0004
:1005F0008091EC019091ED01A091EE01B091EF019D
:10060000892B8A2B8B2BA1F00E94D7000091EC0143
:100610001091ED012091EE013091EF016C197D09EF
:100620008E099F09061717072807390708F442C0E3
:100630008091BC0083FDD8CF85EC8093BC000E94E4
:10064000D7006B017C018091EA01823009F450C02F
:100650008091E8018F3F09F46FC08091E8018032FA
:1006600009F46CC08091E801803309F469C084E02A
:1006700026C08091EC019091ED01A091EE01B09126
:10068000EF01892B8A2B8B2B09F484CF0E94D70092
:100690008090EC019090ED01A090EE01B090EF0100
:1006A0006C197D098E099F0986169706A806B9065A
:1006B00008F070CF8091EB010E94910285E01092CA
:1006C000F101109213021092F001DF91CF911F916E
:1006D0000F91FF90EF90DF90CF90BF90AF909F90E1
:1006E0008F9008959D9191938F5F69CF85EEA5CFEF
:1006F0008091EC019091ED01A091EE01B091EF019C
:10070000892B8A2B8B2B09F49ECF0E94D700009156
:10071000EC011091ED012091EE013091EF016C1987
:100720007D098E099F09061717072807390708F062
:100730008ACFC0CF81E0C3CF80E0C1CF82E0BFCFFE
:1007400083E0BDCF0895E091B3018091B201E81735
:1007500030F4F0E0E65BFE4F808190E008958FEF8B
:100760009FEF08959091B3018091B2012FEF3FEF79
:10077000981748F4E92FF0E0E65BFE4F208130E067
:100780009F5F9093B301C90108958091B201909148
:10079000B301891B990B0895CF92DF92EF92FF92DC
:1007A0000F931F93CF93DF937C01CB018A0120919C
:1007B000F001222389F0EB016B01C40ED51ECC158C
:1007C000DD0569F06991D701ED91FC910190F0810F
:1007D000E02DC7010995F3CF642F0E944C02C80198
:1007E000DF91CF911F910F91FF90EF90DF90CF900D
:1007F0000895CF93DF931F92CDB7DEB76983209121
:10080000F0012223F9F020911302203258F021E068
:1008100030E0FC013383228390E080E00F90DF9191
:10082000CF9108958091F101E82FF0E0EE50FE4F56
:10083000998190838F5F8093F1018093130281E00F
:1008400090E0ECCF61E0CE0101960E944C02F7CF20
:1008500090E080E00895FC0183858F3F19F061E00E
:100860000C9482000895FC0180819181892B39F0DC
:10087000A281B3819C9111968C919CBD8DBD838585
:100880008F3F19F060E00C9482000895AF92BF9200
:10089000CF92DF92EF92FF920F931F93CF93DF934C
:1008A000EC0188819981892B89F06EBD0DB407FE1A
:1008B000FDCFBEB48B2DDF91CF911F910F91FF9093
:1008C000EF90DF90CF90BF90AF9008958885998585
:1008D00011E0892B09F010E8AA24A394862F812324
:1008E00009F0A12C062F2C813D814E815F8160E2B1
:1008F00071EA87E090E00E94C50CF22EB02EE12C48
:10090000C22ED12CFF2019F0C6010E94CE008A858C
:10091000877F09F042C08D858F3F89F0902F91230A
:1009200081E009F480E08A1551F0EF85F8898F891C
:10093000992369F19081892B8083AA24A394E98962
:10094000FA898081998D892B8083FF2019F0C60157
:100950000E94CE008E858F3F39F0EB89FC89808123
:10096000988D892309F0E12AE989FA899081898D96
:100970008095892380838E858F3F09F0BE2C8885E2
:100980009985892BB9F5110F1111BCCF93CF9081A7
:10099000809589238083A12CD2CFE989FA8980812F
:1009A000998D892B8083FF2019F0C6010E94CE000B
:1009B0008D858F3F49F0EF85F8898F89902F91239E
:1009C000A9F09081892B8083E989FA899081898DAA
:1009D0008095892380838E858F3F69F2EB89FC891E
:1009E0008081988D892339F2E12AC5CF9081809545
:1009F0008923E9CF1695C8CF8F929F92AF92BF926D
:100A0000CF92DF92EF92FF920F931F93CF93DF93DA
:100A10007C014B016A01B22EA32E0E943304E40133
:100A2000C80CD91CCC15DD0569F4CB2DDA2D0C0FC3
:100A30001D1FC017D10759F06FEFC7010E94460470
:100A40008993F7CF6991C7010E944604EBCFC70194
:100A50000E942B0481E0DF91CF911F910F91FF90B5
:100A6000EF90DF90CF90BF90AF909F908F900895C0
:100A70008F929F92AF92BF92CF92DF92EF92FF92AE
:100A80000F931F93CF93DF937C01B62EA72E6A019D
:100A900049010E943304E401080D191DC017D10754
:100AA00061F4CB2DDA2DCC0EDD1ECC15DD0551F019
:100AB0006991C7010E944604F8CF6991C7010E945D
:100AC0004604ECCFC7010E942B0481E0DF91CF9157
:100AD0001F910F91FF90EF90DF90CF90BF90AF905C
:100AE0009F908F9008951F93CF93DF93EA01122F69
:100AF000DC0111968D919C91DC01ED91FC910280BD
:100B0000F381E02D0995C817D90729F4812F0E9498
:100B1000B20291E0811190E0892FDF91CF911F9176
:100B20000895CF93DF93EC018B818823A1F0888116
:100B300091E09093F001809312021092F1011092D3
:100B4000130281E00E94B20291E0811190E0892FAE
:100B5000DF91CF9108951092B3011092B2011092DB
:100B6000F101109213020E9473028EE291E09093C1
:100B7000B1018093B0018FE291E09093AF01809337
:100B8000AE0181E08B83CE010E949105982F8111E7
:100B9000CECFDDCF85ED8093BC008091EC019091AC
:100BA000ED01A091EE01B091EF010796A11DB11DDD
:100BB00023E0B695A795979587952A95D1F720912B
:100BC000BC0024FD03C01092EA0108954091EC019D
:100BD0005091ED016091EE017091EF01452B462B94
:100BE000472B69F30097A105B10541F025E12A954E
:100BF000F1F700000197A109B109E1CF8091EB0164
:100C00000C9491022F923F924F925F926F927F923B
:100C10008F929F92AF92BF92CF92DF92EF92FF920C
:100C20000F931F93CF93DF9300D000D01F92CDB7C7
:100C3000DEB77C01DC0118960C914C01BBE08B0EF9
:100C4000911CFC019681878199838A832080318061
:100C50002114310409F424C1418550E0D1011496D6
:100C60008D919C9115978417950708F46CC18C9110
:100C700091E09093F001809312021092F101109292
:100C8000130220E0BE016F5F7F4FC1010E94730518
:100C9000882309F458C1E02FF0E0FC83EB83B12CEA
:100CA000A12C01E08B819C81A816B90608F018C11F
:100CB000D10114968D919C91CB80DC80CA18DB0801
:100CC0008C159D0508F46C01F101F081FD830E94F3
:100CD000D7002B013C018091EA01811172C01C2DCB
:100CE000113208F010E20093EA0121E08B819C812F
:100CF0008C199D09A816B90608F420E02093E90193
:100D00008FEF8093E8011092E701810F8093E60155
:100D10000093C5019091C5018D81880F892B809327
:100D2000C5018091C401813009F091C01092C401C5
:100D30000E94D7002B013C018091C5018093BB002C
:100D40008091EC019091ED01A091EE01B091EF0145
:100D5000892B8A2B8B2BA1F00E94D7002091EC01CC
:100D60003091ED014091EE015091EF016419750948
:100D700086099709261737074807590708F442C01C
:100D80008091BC0083FDD8CF95EC9093BC000E946D
:100D9000D7002B013C018091EA01813009F45BC04E
:100DA0008091E701811710F41091E701E6ECF1E082
:100DB000AAE4B1E080E0811751F191919D938F5F9A
:100DC000FACF8091EC019091ED01A091EE01B091EC
:100DD000EF01892B8A2B8B2B09F47DCF0E94D70042
:100DE0002091EC013091ED014091EE015091EF0125
:100DF000641975098609970926173707480759079F
:100E000008F069CF8091EB010E94910210E01092EE
:100E1000B3011093B2011C151D0409F094C03401F4
:100E20006A0C7B1C2301C201861997098C159D054C
:100E3000A0F5F10181819281DC01ED91FC910284A8
:100E4000F385E02D0995F20181932F01ECCFA5EEFA
:100E5000A093BC009CCF8091EC019091ED01A091FA
:100E6000EE01B091EF01892B8A2B8B2B09F493CFE4
:100E70000E94D7002091EC013091ED014091EE01EC
:100E80005091EF01641975098609970926173707EC
:100E90004807590708F07FCFB5CFAC0CBD1C02CF77
:100EA000D7010280F381E02D309709F44CC01496ED
:100EB0002D913C91159710E019964C9150E02330FC
:100EC000310561F5816089839A834F5F5F4F94019B
:100ED000BE016F5F7F4FCF010E94FC04882399F110
:100EE000F701408550E030E020E060E070E0CB01A9
:100EF000241735075CF5982F872F762F6627D701A3
:100F00001A96EC91E1111AC0FA01E21BF30BEE0DF7
:100F1000FF1DE2856E2B2F5F3F4FEACF2115310574
:100F200019F490689983D3CF2230310511F49F775B
:100F3000F9CF2130310559F6906CF4CFF701E20F6B
:100F4000F31FE385E7CF6FEF7FEFCB010F900F909B
:100F50000F900F900F90DF91CF911F910F91FF9005
:100F6000EF90DF90CF90BF90AF909F908F907F9049
:100F70006F905F904F903F902F9008957F928F9247
:100F80009F92AF92BF92CF92DF92EF92FF920F9318
:100F90001F93CF93DF9300D0CDB7DEB78C016A01EA
:100FA0007B01DC018D919C910E9402064B015C014A
:100FB000F80120813181D90118967C90B4E0B715F1
:100FC00008F473C0828141E050E002C0440F551F15
:100FD0008A95E2F741505109052E000C660B770BFC
:100FE000F381DB01CA010F2E04C0880F991FAA1FCD
:100FF000BB1F0A94D2F780959095A095B095882252
:101000009922AA22BB22DB01CA018C219D21AE219B
:10101000BF2104C0880F991FAA1FBB1FFA95D2F7E2
:1010200088299929AA29BB29F9018787908BA18B47
:10103000B28B50E040E0E72CF12C4E155F05ACF48C
:10104000F901628561110AC0E40FF51F8387892FBA
:101050009A2FAB2FBB274F5F5F4FEFCFF701E41BFA
:10106000F50BE20FF31F8287F2CF6901FBE0CF0E91
:10107000D11CD90116969C91169717968C911797AB
:1010800099838A83AD90BC901197A114B10409F49F
:1010900042C019960C9110E098012E0D3F1DF501EC
:1010A000848195818217930710F480E015C08181B7
:1010B0009281208131E03093F0012093120210924E
:1010C000F1011092130201151105B1F421E0A701FD
:1010D000B601C5010E9473050F900F90DF91CF916B
:1010E0001F910F91FF90EF90DF90CF90BF90AF9046
:1010F0009F908F907F900895DC01ED91FC9102808C
:10110000F381E02DA801BE016F5F7F4F099508179D
:10111000190759F6DBCF1296ED91FC911397309792
:1011200021F214964D915C91159719960C9110E04F
:101130004330510571F48E7F89839A830F5F1F4F6F
:101140009E012F5F3F4FA701B601CF010E943805D6
:10115000C3CF4115510519F49F779983F1CF4230E0
:10116000510511F49068F9CF4130510549F79F7747
:101170009064F3CF1F920F920FB60F9211242F930A
:101180003F938F939F93AF93BF938091BC019091B6
:10119000BD01A091BE01B091BF013091BB0126E01D
:1011A000230F2D3758F50296A11DB11D2093BB01C9
:1011B0008093BC019093BD01A093BE01B093BF0189
:1011C0008091C0019091C101A091C201B091C30171
:1011D0000196A11DB11D8093C0019093C101A09300
:1011E000C201B093C301BF91AF919F918F913F9185
:1011F0002F910F900FBE0F901F90189529E8230F85
:101200000396A11DB11DD2CF1F920F920FB60F9260
:1012100011242F933F934F935F936F937F938F93FB
:101220009F93AF93BF93EF93FF9384E192E00E946B
:10123000BD01FF91EF91BF91AF919F918F917F91F0
:101240006F915F914F913F912F910F900FBE0F9033
:101250001F9018951F920F920FB60F9211242F9383
:101260008F939F93EF93FF93E0912402F0912502D7
:101270008081E0912A02F0912B0282FD1BC09081B7
:1012800080912D028F5F8F7320912E02821741F083
:10129000E0912D02F0E0EC5EFD4F958F80932D02E2
:1012A000FF91EF919F918F912F910F900FBE0F9013
:1012B0001F9018958081F4CF1F920F920FB60F9256
:1012C00011242F933F934F935F936F937F938F934B
:1012D0009F93AF93BF93EF93FF938091B900887F63
:1012E000803609F44AC0F0F5883209F4A7C018F531
:1012F000803109F49BC0B8F4882309F4F9C0883020
:1013000009F494C0FF91EF91BF91AF919F918F919C
:101310007F916F915F914F913F912F910F900FBEF1
:101320000F901F901895883109F488C0803251F7CA
:101330008093E80114C0803409F49DC040F48033E8
:10134000B9F38833F9F68093E80185ECB0C08035B5
:1013500009F485C0883509F496C0883499F60E944E
:10136000CA05D0CF883909F48CC038F5883729F000
:1013700050F4883611F0803729F683E08093EA0133
:101380001092AD0157C0883809F47BC0803919F03C
:10139000803809F0B7CF8091AD01803208F071C07C
:1013A000E091AD0181E08E0F8093AD018091BB0093
:1013B000F0E0E357FE4F80833DC0803B39F0E0F41E
:1013C000803A09F479C0883A09F09CCF84E0809390
:1013D000EA0110928C0110928B01E091B001F09122
:1013E000B101099580918B0181110FC081E080933B
:1013F0008B0110926B0109C0803C09F4A6CF883C98
:1014000009F4A3CF883B09F07DCFE0918C0181E006
:101410008E0F80938C01F0E0E559FE4F8081809320
:10142000BB0090918C0180918B0129C08091C501F6
:101430008093BB0085EC8093BC0064CF9091E70162
:101440008091E601981758F5E091E70181E08E0F51
:101450008093E701F0E0EA53FE4F8081E9CFE0910D
:10146000E70181E08E0F8093E7018091BB00F0E0FF
:10147000EA53FE4F80839091E7018091E60198172F
:10148000C8F285E8D8CFE091E70181E08E0F809324
:10149000E7018091BB00F0E0EA53FE4F808380912A
:1014A000E90181115CCF81E08093C40184EA8093DB
:1014B000BC001092EA0126CF85EC8093BC0010920C
:1014C000EA018091AD01803230F4E091AD01F0E0AD
:1014D000E357FE4F10826091AD0170E0E091AE01E4
:1014E000F091AF018DE891E009951092AD010ACF1E
:1014F0001092E80134CFE4E1F2E01382128288EE28
:1015000093E0A0E0B0E084839583A683B7832AE0CC
:1015100031E03183208325EC30E03587248724ECCB
:1015200030E03787268720EC30E0318B208B21ECB0
:1015300030E0338B228B22EC30E0358B248B26EC91
:1015400030E0378B268B118E128E138E148EE1EBCA
:10155000F2E01382128284839583A683B7838CE1A1
:1015600091E0918380830895CF93DF93CDB7DEB769
:1015700067970FB6F894DEBF0FBECDBF789484B5E1
:10158000826084BD84B5816084BD85B5826085BD7F
:1015900085B5816085BD80916E00816080936E000D
:1015A00010928100809181008260809381008091FF
:1015B00081008160809381008091800081608093B0
:1015C00080008091B10084608093B1008091B00070
:1015D00081608093B00080917A00846080937A006B
:1015E00080917A00826080937A0080917A008E7F69
:1015F00080937A0080917A00806880937A001092BC
:10160000C100E0912402F091250202E00083E09104
:101610002002F09121021082E0912202F091230237
:1016200028E0A22EA08210922C02E0912802F091D4
:10163000290236E0B32EB082E0912602F091270213
:10164000808180618083E0912602F0912702808171
:1016500088608083E0912602F09127028081806873
:101660008083E0912602F091270280818F7D808324
:1016700086E090E00E94ED0C7C0180E6F70180831B
:1016800081EB92E092838183138280E290E09583E4
:101690008483F092C402E092C3021092B3011092CC
:1016A000B2011092F101109213020E9473028EE2B5
:1016B00091E09093B1018093B0018FE291E090931B
:1016C000AF018093AE0111E0F7011383C7010E94BF
:1016D0009105882309F448C18091C3029091C40206
:1016E000188A198A1A8A1B8A9A8389831C821B8208
:1016F0001A878CE090E098878F831B860987CE013C
:1017000001960E940206663871408105910509F034
:101710002BC183E190E00E94ED0CFC01C090C3025C
:10172000D090C4021786108A118A128AD182C08290
:101730001382128211871782168212860087909375
:10174000C0028093BF0283E190E00E94ED0C7C0117
:10175000FC011786108A118A128AD182C0821382F4
:101760001282118783E090E0978386831286008738
:10177000F092BE02E092BD0283E190E00E94ED0C87
:10178000FC011786108A118A128AD182C0821382C4
:101790001282118784E090E0978386831286008707
:1017A000F093C202E093C102FD8AEC8A1E8B1F8A6D
:1017B00040E050E0BA01CE0144960E94BE078091FD
:1017C000C1029091C2029D8B8C8B1E8B8FE08F8B00
:1017D00040E050E0BA01CE0144960E94BE078091DD
:1017E000BF029091C0029D8B8C8B1E8B1F8A40E0A4
:1017F00050E0BA01CE0144960E94BE078091BD021E
:101800009091BE029D8B8C8B1E8B8BE08F8B41E069
:1018100050E060E070E0CE0144960E94BE07009365
:10182000B8008091C1029091C2029A83898383E0BB
:10183000F82EFB82AC8242E050E060E070E0CE0126
:1018400001960E94BE078091BD029091BE029A83CC
:1018500089830B83BC8240E050E0BA01CE0101963F
:101860000E94BE078091BD029091BE029A83898337
:10187000FB821C8362E370E080E090E00E94FC0049
:1018800042E050E060E070E0CE0101960E94BE07A9
:1018900008E010E092E0F92E8091BA018823D9F097
:1018A0008091B8019091B90199838A836AEA84E1B1
:1018B00092E00E94DF0161E084E192E00E94DF019A
:1018C00042E050E0BE016F5F7F4F84E192E00E94F2
:1018D00030011092BA010E94D7008090B40190901C
:1018E000B501A090B601B090B7019B01AC012819D9
:1018F00039094A095B0949015A0130E1831637E287
:101900009306A104B10440F16093B4017093B50152
:101910008093B6019093B7018091C3029091C40265
:10192000188A198A1A8A1B8A9A8389831C821B82C5
:1019300081E08A8718870F831B86F98661E070E053
:1019400080E090E00E94FC00CE0101960E94020619
:101950007093B9016093B8010E949A01882309F439
:101960009BCF0E94A40198CF4BE150E06AE271E066
:1019700084E192E00E94300142E050E066E471E0D0
:1019800084E192E00E943001EFCFA1E21A2EAA1B5F
:10199000BB1BFD010DC0AA1FBB1FEE1FFF1FA2171F
:1019A000B307E407F50720F0A21BB30BE40BF50B1C
:1019B000661F771F881F991F1A9469F760957095A5
:1019C000809590959B01AC01BD01CF010895EE0F6C
:1019D000FF1F0590F491E02D09940F931F93CF936F
:1019E000DF938230910510F482E090E0E091C7022D
:1019F000F091C80230E020E0B0E0A0E0309799F428
:101A00002115310509F44AC0281B390B2430310552
:101A1000D8F58A819B816115710589F1FB0193835A
:101A20008283FE0111C040815181028113814817D8
:101A30005907E0F04817590799F4109761F012968A
:101A40000C93129713961C933296CF01DF91CF918E
:101A50001F910F9108950093C7021093C802F4CF0D
:101A60002115310551F04217530738F0A901DB0168
:101A70009A01BD01DF01F801C1CFEF01F9CF9093C9
:101A8000C8028093C702CDCFFE01E20FF31F8193FE
:101A900091932250310939832883D7CF2091C502F1
:101AA0003091C602232B41F42091020130910301B1
:101AB0003093C6022093C5022091000130910101AC
:101AC0002115310541F42DB73EB7409104015091E5
:101AD0000501241B350BE091C502F091C602E21707
:101AE000F307A0F42E1B3F0B2817390778F0AC0141
:101AF0004E5F5F4F2417350748F04E0F5F1F50931E
:101B0000C6024093C502819391939FCFF0E0E0E03D
:101B10009CCFCF93DF930097E9F0FC0132971382BB
:101B20001282A091C702B091C802ED0130E020E01E
:101B30001097A1F420813181820F931F2091C5025B
:101B40003091C6022817390709F061C0F093C60228
:101B5000E093C502DF91CF910895EA01CE17DF0728
:101B6000E8F54A815B819E0141155105B1F7E90114
:101B7000FB83EA8349915991C40FD51FEC17FD07E8
:101B800061F4808191810296840F951FE901998308
:101B90008883828193819B838A83F0E0E0E01296C0
:101BA0008D919C9113970097B9F52D913C911197C8
:101BB000CD010296820F931F2091C5023091C6027B
:101BC0002817390739F6309751F51092C80210924C
:101BD000C702B093C602A093C502BCCFD383C28311
:101BE00040815181840F951FC817D90761F44E5F5A
:101BF0005F4F88819981480F591F518340838A81A3
:101C00009B81938382832115310509F0B0CFF09336
:101C1000C802E093C7029ECFFD01DC01C0CF138252
:081C20001282D7CFF894FFCF28
:101C28000000C902800000000000DF0130015D01F2
:101C38002C028E016C01800100000000F903CC0326
:101C48002804A203C503B203A303436F756C646E33
:101C580027742066696E642056434E4C3430343005
:0A1C68002063686970000D0A000097
:00000001FF
