:100000000C945D000C9485000C9485000C94850084
:100010000C9485000C9485000C9485000C9485004C
:100020000C9485000C9485000C9485000C9485003C
:100030000C9485000C9485000C9485000C9485002C
:100040000C9420020C9485000C9490020C946A028B
:100050000C9485000C9485000C9485000C9485000C
:100060000C9485000C94850000000008000201003B
:100070000003040700000000000000000000000072
:10008000250028002B0000000000240027002A0083
:10009000040404040404040402020202020203032E
:1000A0000303030301020408102040800102040836
:1000B0001020010204081020140711241FBECFEFE6
:1000C000D8E0DEBFCDBF11E0A0E0B1E0EEECF1E1A1
:1000D00002C005900D92A231B107D9F721E0A2E14B
:1000E000B1E001C01D92AD3DB207E1F710E0CDE5F2
:1000F000D0E004C02197FE010E94DF08CC35D10773
:10010000C9F70E94C2020C94E5080C94000090E02C
:10011000FC01EC55FF4F249180579F4FFC018491C7
:10012000882399F090E0880F991FFC01EA57FF4F50
:10013000A591B491FC01E458FF4F859194918FB73C
:10014000F894EC91E22BEC938FBF089590E0FC01C2
:10015000E859FF4F2491FC01EC55FF4F3491FC010D
:10016000E057FF4FE491EE23C9F0222339F023300A
:1001700001F1A8F4213019F1223029F1F0E0EE0F5D
:10018000FF1FE458FF4FA591B4918FB7F894EC91FD
:10019000611126C030953E233C938FBF08952730D0
:1001A000A9F02830C9F0243049F7809180008F7D74
:1001B00003C0809180008F7780938000DFCF84B56B
:1001C0008F7784BDDBCF84B58F7DFBCF8091B0006E
:1001D0008F778093B000D2CF8091B0008F7DF9CF20
:1001E0003E2BDACF8E50806480937C0080917A0021
:1001F000806480937A0080917A0086FDFCCF8091A4
:100200007800909179000895AF92BF92CF92DF92DB
:10021000EF92FF920F931F93CF93DF936C017B01BB
:100220008B01040F151FEB015E01AE18BF08C0174C
:10023000D10759F06991D601ED91FC910190F081BF
:10024000E02DC6010995892B79F7C501DF91CF9182
:100250001F910F91FF90EF90DF90CF90BF90AF90E4
:100260000895FC01538D448D252F30E0842F90E0BC
:10027000821B930B541710F0CF96089501970895A1
:10028000FC01918D828D981761F0A28DAE0FBF2F6A
:10029000B11D5D968C91928D9F5F9F73928F90E0C0
:1002A00008958FEF9FEF0895FC01918D828D98172F
:1002B00031F0828DE80FF11D858D90E008958FEF6C
:1002C0009FEF0895FC01918D228D892F90E0805C35
:1002D0009F4F821B91098F739927089586E391E0C0
:1002E0000E94620121E0892B09F420E0822F089509
:1002F000CF93C1E086E391E00E946201892B49F02F
:1003000086E391E00E9440018134A1F7C093D301BC
:10031000F1CFCF9108950E946E0181110C94780164
:100320000895FC01A48DA80FB92FB11DA35ABF4F8A
:100330002C91848D90E001968F739927848FA689E4
:10034000B7892C93A089B1898C91837080648C9338
:10035000938D848D981306C00288F389E02D8081E7
:100360008F7D80830895EF92FF920F931F93CF9319
:10037000DF93EC0181E0888F9B8D8C8D98131AC0E0
:10038000E889F989808185FF15C09FB7F894EE89C7
:10039000FF896083E889F989808183708064808324
:1003A0009FBF81E090E0DF91CF911F910F91FF906F
:1003B000EF900895F62E0B8D10E00F5F1F4F0F7317
:1003C0001127E02E8C8D8E110CC00FB607FCFACFD2
:1003D000E889F989808185FFF5CFCE010E949101DE
:1003E000F1CFEB8DEC0FFD2FF11DE35AFF4FF082A3
:1003F0009FB7F8940B8FEA89FB8980818062CFCF09
:10040000CF93DF93EC01888D8823B9F0AA89BB894B
:10041000E889F9898C9185FD03C0808186FD0DC036
:100420000FB607FCF7CF8C9185FFF2CF808185FF57
:10043000EDCFCE010E949101E9CFDF91CF910895D8
:100440001F920F920FB60F9211242F933F938F9309
:100450009F93AF93BF938091D9019091DA01A091BE
:10046000DB01B091DC013091D80126E0230F2D375C
:1004700058F50296A11DB11D2093D8018093D90192
:100480009093DA01A093DB01B093DC018091D40159
:100490009091D501A091D601B091D7010196A11DEF
:1004A000B11D8093D4019093D501A093D601B09350
:1004B000D701BF91AF919F918F913F912F910F9055
:1004C0000FBE0F901F90189529E8230F0396A11DCA
:1004D000B11DD2CF1F920F920FB60F9211242F93FE
:1004E0003F934F935F936F937F938F939F93AF93BC
:1004F000BF93EF93FF9386E391E00E949101FF91F8
:10050000EF91BF91AF919F918F917F916F915F918B
:100510004F913F912F910F900FBE0F901F90189504
:100520001F920F920FB60F9211242F938F939F93C8
:10053000EF93FF93E0914601F09147018081E091B4
:100540004C01F0914D0182FD1BC0908180914F01C3
:100550008F5F8F7320915001821741F0E0914F011E
:10056000F0E0EA5CFE4F958F80934F01FF91EF9191
:100570009F918F912F910F900FBE0F901F90189504
:100580008081F4CF789484B5826084BD84B5816025
:1005900084BD85B5826085BD85B5816085BD80914E
:1005A0006E00816080936E001092810080918100C6
:1005B00082608093810080918100816080938100BE
:1005C000809180008160809380008091B100846080
:1005D0008093B1008091B00081608093B0008091E1
:1005E0007A00846080937A0080917A0082608093A0
:1005F0007A0080917A008E7F80937A0080917A00D1
:10060000806880937A001092C10086E00E94870083
:1006100087E00E94870088E00E94870089E00E94AE
:100620008700E0914601F091470182E08083E091EC
:100630004201F09143011082E0914401F0914501A3
:1006400088E0808310924E01E0914A01F0914B01C5
:1006500086E08083E0914801F091490180818061CA
:100660008083E0914801F091490180818860808316
:10067000E0914801F0914901808180688083E09198
:100680004801F091490180818F7D8083C6E3D1E0EC
:100690008091D301882301F16AEA86E391E00E9408
:1006A000B30163E086E391E00E94B30106E111E04B
:1006B000C017D10779F0F801F08061810E5F1F4FFC
:1006C00086E391E00E94B3016F2D86E391E00E94E2
:1006D000B301EECF1092D3013FB7F8948091D401CB
:1006E0009091D501A091D601B091D70126B5A89BD4
:1006F00005C02F3F19F00196A11DB11D3FBFBA2FB4
:10070000A92F982F8827820F911DA11DB11D43E0AD
:10071000880F991FAA1FBB1F4A95D1F7409112015C
:100720005091130160911401709115018C019D018C
:10073000041B150B260B370BB901A801443C59408B
:100740006105710508F468C3809312019093130149
:10075000A0931401B093150160E086E00E94A6000A
:1007600061E087E00E94A60060E088E00E94A600A9
:1007700060E089E00E94A6008EE00E94F2005C0129
:100780008FE00E94F2006C0180E10E94F2007C0187
:1007900081E10E94F2008C0160E086E00E94A600E8
:1007A00060E087E00E94A60060E088E00E94A6006A
:1007B00060E089E00E94A600609116017091170127
:1007C000072E000C880B990B0E94E6072B013C01B9
:1007D000B501BB0C880B990B0E94E60724E13FE3AF
:1007E0004EE450E40E9472089B01AC01C301B201C7
:1007F0000E94420720E030E040E05FE30E94720880
:100800000E94AE0770931701609316016091180162
:1008100070911901072E000C880B990B0E94E607B6
:100820004B015C01B601DD0C880B990B0E94E607B9
:1008300024E13FE34EE450E40E9472089B01AC01C6
:10084000C501B4010E94420720E030E040E05FE3D0
:100850000E9472080E94AE077093190160931801FC
:1008600060911A0170911B01072E000C880B990BE7
:100870000E94E6074B015C01B701FF0C880B990B46
:100880000E94E60724E13FE34EE450E40E94720830
:100890009B01AC01C501B4010E94420720E030E099
:1008A00040E05FE30E9472080E94AE0770931B0154
:1008B00060931A0160911C0170911D01072E000CBC
:1008C000880B990B0E94E6076B017C01B801110FA0
:1008D000880B990B0E94E60724E13FE34EE450E4C5
:1008E0000E9472089B01AC01C701B6010E94420739
:1008F00020E030E040E05FE30E9472080E94AE0713
:1009000070931D0160931C0161E086E00E94A600C7
:1009100060E087E00E94A60060E088E00E94A600F8
:1009200060E089E00E94A6008EE00E94F2005C0177
:100930008FE00E94F2006C0180E10E94F2007C01D5
:1009400081E10E94F2008C0160E086E00E94A60036
:1009500060E087E00E94A60060E088E00E94A600B8
:1009600060E089E00E94A60060911E0170911F0165
:10097000072E000C880B990B0E94E6072B013C0107
:10098000B501BB0C880B990B0E94E60724E13FE3FD
:100990004EE450E40E9472089B01AC01C301B20115
:1009A0000E94420720E030E040E05FE30E947208CE
:1009B0000E94AE0770931F0160931E016091200199
:1009C00070912101072E000C880B990B0E94E607FD
:1009D0004B015C01B601DD0C880B990B0E94E60708
:1009E00024E13FE34EE450E40E9472089B01AC0115
:1009F000C501B4010E94420720E030E040E05FE31F
:100A00000E9472080E94AE0770932101609320013A
:100A10006091220170912301072E000C880B990B25
:100A20000E94E6074B015C01B701FF0C880B990B94
:100A30000E94E60724E13FE34EE450E40E9472087E
:100A40009B01AC01C501B4010E94420720E030E0E7
:100A500040E05FE30E9472080E94AE07709323019A
:100A6000609322016091240170912501072E000CF2
:100A7000880B990B0E94E6076B017C01B801110FEE
:100A8000880B990B0E94E60724E13FE34EE450E413
:100A90000E9472089B01AC01C701B6010E94420787
:100AA00020E030E040E05FE30E9472080E94AE0761
:100AB000709325016093240160E086E00E94A60007
:100AC00060E087E00E94A60061E088E00E94A60046
:100AD00060E089E00E94A6008EE00E94F2005C01C6
:100AE0008FE00E94F2006C0180E10E94F2007C0124
:100AF00081E10E94F2008C0160E086E00E94A60085
:100B000060E087E00E94A60060E088E00E94A60006
:100B100060E089E00E94A6006091260170912701A3
:100B2000072E000C880B990B0E94E6072B013C0155
:100B3000B501BB0C880B990B0E94E60724E13FE34B
:100B40004EE450E40E9472089B01AC01C301B20163
:100B50000E94420720E030E040E05FE30E9472081C
:100B60000E94AE07709327016093260160912801CF
:100B700070912901072E000C880B990B0E94E60743
:100B80004B015C01B601DD0C880B990B0E94E60756
:100B900024E13FE34EE450E40E9472089B01AC0163
:100BA000C501B4010E94420720E030E040E05FE36D
:100BB0000E9472080E94AE07709329016093280179
:100BC00060912A0170912B01072E000C880B990B64
:100BD0000E94E6074B015C01B701FF0C880B990BE3
:100BE0000E94E60724E13FE34EE450E40E947208CD
:100BF0009B01AC01C501B4010E94420720E030E036
:100C000040E05FE30E9472080E94AE0770932B01E0
:100C100060932A0160912C0170912D01072E000C28
:100C2000880B990B0E94E6076B017C01B801110F3C
:100C3000880B990B0E94E60724E13FE34EE450E461
:100C40000E9472089B01AC01C701B6010E944207D5
:100C500020E030E040E05FE30E9472080E94AE07AF
:100C600070932D0160932C0160E086E00E94A60045
:100C700060E087E00E94A60060E088E00E94A60095
:100C800061E089E00E94A6008EE00E94F2005C0113
:100C90008FE00E94F2006C0180E10E94F2007C0172
:100CA00081E10E94F2008C0160E086E00E94A600D3
:100CB00060E087E00E94A60060E088E00E94A60055
:100CC00060E089E00E94A60060912E0170912F01E2
:100CD000072E000C880B990B0E94E6072B013C01A4
:100CE000B501BB0C880B990B0E94E60724E13FE39A
:100CF0004EE450E40E9472089B01AC01C301B201B2
:100D00000E94420720E030E040E05FE30E9472086A
:100D10000E94AE0770932F0160932E016091300105
:100D200070913101072E000C880B990B0E94E60789
:100D30004B015C01B601DD0C880B990B0E94E607A4
:100D400024E13FE34EE450E40E9472089B01AC01B1
:100D5000C501B4010E94420720E030E040E05FE3BB
:100D60000E9472080E94AE077093310160933001B7
:100D70006091320170913301072E000C880B990BA2
:100D80000E94E6074B015C01B701FF0C880B990B31
:100D90000E94E60724E13FE34EE450E40E9472081B
:100DA0009B01AC01C501B4010E94420720E030E084
:100DB00040E05FE30E9472080E94AE077093330127
:100DC000609332016091340170913501072E000C5F
:100DD000880B990B0E94E6076B017C01B801110F8B
:100DE000880B990B0E94E60724E13FE34EE450E4B0
:100DF0000E9472089B01AC01C701B6010E94420724
:100E000020E030E040E05FE30E9472080E94AE07FD
:100E100070933501609334010E946E01882309F4B8
:100E200037CC0E94780134CCE6E3F1E013821282E1
:100E300088EE93E0A0E0B0E084839583A683B78337
:100E400084E091E09183808385EC90E095878487AE
:100E500084EC90E09787868780EC90E0918B808B84
:100E600081EC90E0938B828B82EC90E0958B848B6D
:100E700086EC90E0978B868B118E128E138E148EDB
:100E800008955058BB27AA270E9459070C94380888
:100E90000E942A0838F00E94310820F039F49F3F60
:100EA00019F426F40C9427080EF4E095E7FB0C9453
:100EB0002108E92F0E94490858F3BA1762077307FF
:100EC0008407950720F079F4A6F50C946B080EF4CE
:100ED000E0950B2EBA2FA02D0B01B90190010C014A
:100EE000CA01A0011124FF27591B99F0593F50F462
:100EF000503E68F11A16F040A22F232F342F4427BA
:100F0000585FF3CF469537952795A795F0405395B1
:100F1000C9F77EF41F16BA0B620B730B840BBAF081
:100F20009150A1F0FF0FBB1F661F771F881FC2F7EC
:100F30000EC0BA0F621F731F841F48F48795779500
:100F40006795B795F7959E3F08F0B0CF9395880FBA
:100F500008F09927EE0F9795879508950E94B50799
:100F60006894B1110C946C0808950E94510888F09F
:100F70009F5798F0B92F9927B751B0F0E1F0660F5D
:100F8000771F881F991F1AF0BA95C9F714C0B1309E
:100F900091F00E946B08B1E008950C946B08672FE4
:100FA000782F8827B85F39F0B93FCCF386957795CD
:100FB0006795B395D9F73EF49095809570956195B6
:100FC0007F4F8F4F9F4F0895E89409C097FB3EF4E1
:100FD00090958095709561957F4F8F4F9F4F992386
:100FE000A9F0F92F96E9BB279395F6958795779504
:100FF0006795B795F111F8CFFAF4BB0F11F460FFC4
:101000001BC06F5F7F4F8F4F9F4F16C0882311F01B
:1010100096E911C0772321F09EE8872F762F05C02F
:10102000662371F096E8862F70E060E02AF09A95CA
:10103000660F771F881FDAF7880F9695879597F9BF
:10104000089597F99F6780E870E060E008959FEF4A
:1010500080EC089500240A9416161706180609064F
:10106000089500240A94121613061406050608951E
:10107000092E0394000C11F4882352F0BB0F40F4A6
:10108000BF2B11F460FF04C06F5F7F4F8F4F9F4FE6
:10109000089557FD9058440F551F59F05F3F71F068
:1010A0004795880F97FB991F61F09F3F79F08795CF
:1010B0000895121613061406551FF2CF4695F1DF58
:1010C00008C0161617061806991FF1CF86957105E8
:1010D000610508940895E894BB2766277727CB011C
:1010E00097F908950E9485080C9438080E942A08F0
:1010F00038F00E94310820F0952311F00C9421085B
:101100000C94270811240C946C080E94490870F371
:10111000959FC1F3950F50E0551F629FF001729F9C
:10112000BB27F00DB11D639FAA27F00DB11DAA1FAB
:10113000649F6627B00DA11D661F829F2227B00DF8
:10114000A11D621F739FB00DA11D621F839FA00D83
:10115000611D221F749F3327A00D611D231F849FD3
:10116000600D211D822F762F6A2F11249F5750402A
:101170009AF0F1F088234AF0EE0FFF1FBB1F661FA5
:10118000771F881F91505040A9F79E3F510580F06E
:101190000C9421080C946C085F3FE4F3983ED4F360
:1011A000869577956795B795F795E7959F5FC1F712
:1011B000FE2B880F911D9695879597F90895EE0F50
:0E11C000FF1F0590F491E02D0994F894FFCFE5
:1011CE0000000000B3010401310100026201400180
:0211DE005401BA
:00000001FF
