:100000000C9458000C9480000C9480000C94800098
:100010000C9480000C9480000C9480000C94800060
:100020000C9480000C9480000C9480000C94800050
:100030000C9480000C9480000C9480000C94800040
:100040000C9490050C9480000C9400060C94DA0536
:100050000C9480000C9480000C9480000C94800020
:100060000C9432060C94800000000000250028004B
:100070002B00040404040404040402020202020229
:10008000030303030303010204081020408001025C
:1000900004081020010204081020000000080002DB
:1000A00001000003040700000000000000005107E9
:1000B00011241FBECFEFD8E0DEBFCDBF11E0A0E01E
:1000C000B1E0ECE1F7E102C005900D92A832B10772
:1000D000D9F722E0A8E2B1E001C01D92A43CB2072A
:1000E000E1F710E0C8E5D0E004C02197FE010E94CE
:1000F000860BC735D107C9F70E94B1070C948C0B4A
:100100000C94000090E0FC01E656FF4F2491FC01A6
:10011000EA57FF4F3491FC01EE58FF4FE491EE2374
:10012000C9F0222339F0233001F1A8F4213019F16C
:10013000223029F1F0E0EE0FFF1FE859FF4FA591A3
:10014000B4918FB7F894EC91611126C030953E239D
:100150003C938FBF08952730A9F02830C9F0243090
:1001600049F7809180008F7D03C0809180008F7758
:1001700080938000DFCF84B58F7784BDDBCF84B5DB
:100180008F7DFBCF8091B0008F778093B000D2CF6E
:100190008091B0008F7DF9CF3E2BDACF3FB7F89436
:1001A00080918F0190919001A0919101B091920165
:1001B00026B5A89B05C02F3F19F00196A11DB11DC2
:1001C0003FBFBA2FA92F982F8827BC01CD01620FFE
:1001D000711D811D911D43E0660F771F881F991FB8
:1001E0004A95D1F7089508950895AF92BF92CF929E
:1001F000DF92EF92FF920F931F93CF93DF936C01E7
:100200007B018B01040F151FEB015E01AE18BF08C7
:10021000C017D10759F06991D601ED91FC91019079
:10022000F081E02DC6010995892B79F7C501DF9191
:10023000CF911F910F91FF90EF90DF90CF90BF90E3
:10024000AF900895FC01538D448D252F30E0842F0D
:1002500090E0821B930B541710F0CF9608950197EE
:100260000895FC01918D828D981761F0A28DAE0FDB
:10027000BF2FB11D5D968C91928D9F5F9F73928F62
:1002800090E008958FEF9FEF0895FC01918D828D8E
:10029000981731F0828DE80FF11D858D90E008955B
:1002A0008FEF9FEF0895FC01918D228D892F90E0B3
:1002B000805C9F4F821B91098F739927089585E079
:1002C00092E00E94530121E0892B09F420E0822F63
:1002D0000895CF93C1E085E092E00E945301892BFD
:1002E00049F085E092E00E9431018134A1F7C0938A
:1002F0008901F1CFCF9108950E945F0181110C9483
:1003000069010895FC01A48DA80FB92FB11DA35A4E
:10031000BF4F2C91848D90E001968F739927848F25
:10032000A689B7892C93A089B1898C918370806448
:100330008C93938D848D981306C00288F389E02DE9
:1003400080818F7D80830895EF92FF920F931F939A
:10035000CF93DF93EC0181E0888F9B8D8C8D981378
:100360001AC0E889F989808185FF15C09FB7F89484
:10037000EE89FF896083E889F989808183708064D0
:1003800080839FBF81E090E0DF91CF911F910F911B
:10039000FF90EF900895F62E0B8D10E00F5F1F4F2A
:1003A0000F731127E02E8C8D8E110CC00FB607FC39
:1003B000FACFE889F989808185FFF5CFCE010E94C7
:1003C0008201F1CFEB8DEC0FFD2FF11DE35AFF4FB2
:1003D000F0829FB7F8940B8FEA89FB898081806255
:1003E000CFCFCF93DF93EC01888D8823B9F0AA8912
:1003F000BB89E889F9898C9185FD03C0808186FDE0
:100400000DC00FB607FCF7CF8C9185FFF2CF80812E
:1004100085FFEDCFCE010E948201E9CFDF91CF9120
:10042000089520914901260F3327331F21323105CA
:10043000ECF42091DB01FC0190E080E0243069F0D5
:1004400082E00895A09149012191AC01475D5E4F82
:10045000A40FB52FB11D2C930196861798F38091A8
:100460004901680F6093490180E0089581E0089593
:100470001092DB0181E08093DA011092B50161E016
:1004800082E10E94820061E083E10E948200E9EB48
:10049000F0E080818E7F808380818D7F808380E209
:1004A0008093B80085E48093BC000895CF93DF93D8
:1004B00091E0909328018823B9F0C091B800D091C1
:1004C000BA008091BC008A7B8093BC0060E082E12E
:1004D0000E94820060E083E10E9482000E94380254
:1004E000D093BA00C093B800DF91CF9108958F9256
:1004F0009F92AF92BF92CF92DF92EF92FF920F93B3
:100500001F93CF93DF93D0910402D13208F0D7C06C
:10051000182FC09103020E94CE006B017C018091D4
:10052000DB0181116BC082E08093DB011093DA0163
:100530008FEF8093D9011092D801D093D701A3EE09
:10054000B1E0E7EBF1E080E0D81391C01092B60182
:100550008091B601CC0FC82BC093B6018091B50134
:10056000813009F088C01092B5010E94CE006B0165
:100570007C018091B6018093BB008091DD01909158
:10058000DE01A091DF01B091E001892B8A2B8B2B3A
:10059000A1F00E94CE000091DD011091DE012091BA
:1005A000DF013091E0016C197D098E099F09061762
:1005B00017072807390708F442C08091BC0083FD63
:1005C000D8CF85EC8093BC000E94CE006B017C01EB
:1005D0008091DB01823009F450C08091D9018F3FB6
:1005E00009F46FC08091D901803209F46CC0809108
:1005F000D901803309F469C084E026C08091DD010F
:100600009091DE01A091DF01B091E001892B8A2B4E
:100610008B2B09F484CF0E94CE008090DD01909056
:10062000DE01A090DF01B090E0016C197D098E0918
:100630009F0986169706A806B90608F070CF809124
:10064000DC010E94560285E01092E2011092040241
:100650001092E101DF91CF911F910F91FF90EF90E8
:10066000DF90CF90BF90AF909F908F9008959D9115
:1006700091938F5F69CF85EEA5CF8091DD01909139
:10068000DE01A091DF01B091E001892B8A2B8B2B39
:1006900009F49ECF0E94CE000091DD011091DE0191
:1006A0002091DF013091E0016C197D098E099F09CD
:1006B000061717072807390708F08ACFC0CF81E04F
:1006C000C3CF80E0C1CF82E0BFCF83E0BDCF8091B8
:1006D000B00291E09093E101809303021092E20155
:1006E0001092040281E00E94770291E0811190E073
:1006F000892F08950895E091940180919301E8175E
:1007000030F4F0E0EB56FE4F808190E008958FEFDB
:100710009FEF089590919401809193012FEF3FEF07
:10072000981748F4E92FF0E0EB56FE4F208130E0B7
:100730009F5F90939401C9010895809193019091D6
:100740009401891B990B0895CF92DF92EF92FF924B
:100750000F931F93CF93DF937C01CB018A012091EC
:10076000E101222389F0EB016B01C40ED51ECC15EB
:10077000DD0569F06991D701ED91FC910190F0815F
:10078000E02DC7010995F3CF642F0E941102C80123
:10079000DF91CF911F910F91FF90EF90DF90CF905D
:1007A0000895CF93DF931F92CDB7DEB76983209171
:1007B000E1012223F9F020910402203258F021E0D7
:1007C00030E0FC013383228390E080E00F90DF91E2
:1007D000CF9108958091E201E82FF0E0ED51FE4FB6
:1007E000998190838F5F8093E2018093040281E07E
:1007F00090E0ECCF61E0CE0101960E941102F7CFAC
:1008000090E080E008958F929F92AF92BF920F93F5
:100810001F93CF93DF93CDB7DEB7A1970FB6F894B0
:10082000DEBF0FBECDBF19A2423008F44AE08E01F0
:100830000F5D1F4F842E912CB12CA12CA50194018A
:100840000E94640BE62FB901CA01EA3044F5E05D6D
:10085000D801EE938D01232B242B252B79F790E0E3
:1008600080E0109769F0FD0101900020E9F73197D1
:10087000AF014A1B5B0BBD0185E092E00E94F500D1
:10088000A1960FB6F894DEBF0FBECDBFDF91CF911A
:100890001F910F91BF90AF909F908F900895E95C4A
:1008A000D7CFCF92DF92EF92FF920F931F93CF9308
:1008B000DF93C82F8091BE029091BF0221E0209368
:1008C000E101C09303021092E20110920402DC01E4
:1008D000ED91FC910190F081E02D099581E00E945D
:1008E00077020E94CE006B017C018091DB018111B7
:1008F00065C081E08093DB018093DA019FEF9093E4
:10090000D9011092D8018093D7018093B6018091CC
:10091000B601CC0FC82BC093B6018091B5018130D0
:1009200009F09DC01092B5010E94CE006B017C01C0
:100930008091B6018093BB008091DD019091DE0132
:10094000A091DF01B091E001892B8A2B8B2BA1F0C4
:100950000E94CE000091DD011091DE012091DF01A7
:100960003091E0016C197D098E099F090617170760
:100970002807390708F443C08091BC0083FDD8CF15
:1009800085EC8093BC000E94CE006B017C018091BD
:10099000DB01813009F465C08091D801823008F014
:1009A00082C08091D801A7EBB1E0E5E9F1E090E0E9
:1009B000981751F12D9121939F5FFACF8091DD011E
:1009C0009091DE01A091DF01B091E001892B8A2B8B
:1009D0008B2B09F48ACF0E94CE000091DD0110918B
:1009E000DE012091DF013091E0016C197D098E0953
:1009F0009F09061717072807390708F076CF809157
:100A0000DC010E94560280E01092940180939301D1
:100A1000823009F04AC08091BE029091BF02DC0191
:100A2000ED91FC910284F385E02D0995D82FB0E07B
:100A3000CB2F8091BE029091BF02DC01ED91FC9121
:100A40000284F385E02D09958C0F9D1FDF91CF91D6
:100A50001F910F91FF90EF90DF90CF90089585EE5A
:100A600090CF8091DD019091DE01A091DF01B091E6
:100A7000E001892B8A2B8B2B09F489CF0E94CE00B1
:100A80000091DD011091DE012091DF013091E00144
:100A90006C197D098E099F09061717072807390762
:100AA00008F075CFACCF82E07ECF90E080E0CECF73
:100AB00085ED8093BC008091DD019091DE01A091D5
:100AC000DF01B091E0010796A11DB11D23E0B695AD
:100AD000A795979587952A95D1F72091BC0024FD7D
:100AE00003C01092DB0108954091DD015091DE01B9
:100AF0006091DF017091E001452B462B472B69F394
:100B00000097A105B10541F025E12A95F1F7000014
:100B10000197A109B109E1CF8091DC010C94560243
:100B20001F920F920FB60F9211242F933F938F9322
:100B30009F93AF93BF9380918B0190918C01A09173
:100B40008D01B0918E0130918A0126E0230F2D375F
:100B500058F50296A11DB11D20938A0180938B0147
:100B600090938C01A0938D01B0938E0180918F01A1
:100B700090919001A0919101B09192010196A11DD7
:100B8000B11D80938F0190939001A0939101B09338
:100B90009201BF91AF919F918F913F912F910F90B3
:100BA0000FBE0F901F90189529E8230F0396A11DE3
:100BB000B11DD2CF1F920F920FB60F9211242F9317
:100BC0003F934F935F936F937F938F939F93AF93D5
:100BD000BF93EF93FF9385E092E00E948201FF9123
:100BE000EF91BF91AF919F918F917F916F915F91A5
:100BF0004F913F912F910F900FBE0F901F9018951E
:100C00001F920F920FB60F9211242F938F939F93E1
:100C1000EF93FF93E0911502F09116028081E0912D
:100C20001B02F0911C0282FD1BC0908180911E026C
:100C30008F5F8F7320911F02821741F0E0911E0297
:100C4000F0E0EB5FFD4F958F80931E02FF91EF91D7
:100C50009F918F912F910F900FBE0F901F9018951D
:100C60008081F4CF1F920F920FB60F9211242F9311
:100C70003F934F935F936F937F938F939F93AF9324
:100C8000BF93EF93FF938091B900887F803609F47A
:100C90004AC0F0F5883209F4A7C018F5803109F48C
:100CA0009BC0B8F4882309F4F9C0883009F494C0D3
:100CB000FF91EF91BF91AF919F918F917F916F9134
:100CC0005F914F913F912F910F900FBE0F901F900A
:100CD0001895883109F488C0803251F78093D90182
:100CE00014C0803409F49DC040F48033B9F38833D4
:100CF000F9F68093D90185ECB0C0803509F485C040
:100D0000883509F496C0883499F60E945805D0CFEA
:100D1000883909F48CC038F5883729F050F48836C2
:100D200011F0803729F683E08093DB0110926B018C
:100D300057C0883809F47BC0803919F0803809F031
:100D4000B7CF80916B01803208F071C0E0916B01E8
:100D500081E08E0F80936B018091BB00F0E0E55B3A
:100D6000FE4F80833DC0803B39F0E0F4803A09F4C7
:100D700079C0883A09F09CCF84E08093DB0110921F
:100D80004A0110924901E0916E01F0916F010995BD
:100D90008091490181110FC081E080934901109237
:100DA000290109C0803C09F4A6CF883C09F4A3CFEF
:100DB000883B09F07DCFE0914A0181E08E0F80935E
:100DC0004A01F0E0E75DFE4F80818093BB00909187
:100DD0004A018091490129C08091B6018093BB00EE
:100DE00085EC8093BC0064CF9091D8018091D701AD
:100DF000981758F5E091D80181E08E0F8093D801C3
:100E0000F0E0E954FE4F8081E9CFE091D80181E024
:100E10008E0F8093D8018091BB00F0E0E954FE4F23
:100E200080839091D8018091D7019817C8F285E806
:100E3000D8CFE091D80181E08E0F8093D8018091C6
:100E4000BB00F0E0E954FE4F80838091DA0181110C
:100E50005CCF81E08093B50184EA8093BC0010925E
:100E6000DB0126CF85EC8093BC001092DB018091E2
:100E70006B01803230F4E0916B01F0E0E55BFE4FF6
:100E8000108260916B0170E0E0916C01F0916D0156
:100E90008BE491E0099510926B010ACF1092D90171
:100EA00034CFE5E0F2E01382128248EE53E060E0D6
:100EB00070E0448355836683778384E091E0918377
:100EC000808385EC90E09587848784EC90E0978719
:100ED000868780EC90E0918B808B81EC90E0938B07
:100EE000828B82EC90E0958B848B86EC90E0978BE4
:100EF000868B118E128E138E148EA2EAB2E0139698
:100F00001C921E92129714964D935D936D937C9351
:100F1000179786E191E011969C938E93EEEAF2E0AA
:100F20001786128A138A148A158A1682158280E01F
:100F300091E09087878380E890E09287818713868D
:100F400081E08487158683E0868788E48283B18B7D
:100F5000A08B85E3808388E08383148284E081838F
:100F60000895789484B5826084BD84B5816084BD21
:100F700085B5826085BD85B5816085BD80916E0037
:100F8000816080936E001092810080918100826068
:100F900080938100809181008160809381008091A5
:100FA00080008160809380008091B1008460809394
:100FB000B1008091B00081608093B00080917A0090
:100FC000846080937A0080917A00826080937A00B6
:100FD00080917A008E7F80937A0080917A00806879
:100FE00080937A001092C100E0911502F0911602F0
:100FF00082E08083E0911102F09112021082E09170
:101000001302F091140288E0808310921D02E09197
:101010001902F0911A0286E08083E0911702F091A4
:101020001802808180618083E0911702F09118029C
:10103000808188608083E0911702F091180280819E
:1010400080688083E0911702F091180280818F7D83
:10105000808310929401109293011092E2011092F9
:1010600004020E94380283EF90E090936F01809316
:101070006E0184EF90E090936D0180936C018091FC
:10108000B0028854843010F40E94670380E89AE12B
:10109000A6E0B0E08093C0029093C102A093C20288
:1010A000B093C30282E08093B8000E946703682F68
:1010B00070E090E080E04AE00E94030442E050E0EB
:1010C00064E271E085E092E00E94F5002091AE02BA
:1010D00024FD4FC01092B4021092B30280EE90E053
:1010E0009093B8028093B7028091B3029091B402BA
:1010F000811534E0930709F454C008F041C000970B
:1011000009F466C08115924009F436C18CE98093D8
:10111000BD0260E070E088EC92EC60937001709327
:101120007101809372019093730109E811E080913D
:101130008901882309F458C06AEA85E092E00E9498
:10114000A40162E085E092E00E94A401C9E7D1E039
:101150000C171D0709F446C0F8806981229685E0C6
:1011600092E00E94A4016F2D85E092E00E94A4010C
:10117000EFCF80E092E09093B4028093B302AECFC1
:101180008115A8E09A07D1F08115BAE09B07D9F044
:101190008115964009F0BACF6FE672E183E89FE3CC
:1011A00004C06FE672E183E090E422FF16C020E005
:1011B0003EEF4FEF56E40E94C109AFCF6FE672E1F8
:1011C00083E09FE3F2CF6FE672E183E89EE3EDCF29
:1011D00066EA7BE984EC90E4E8CF20E030EE4FEF64
:1011E00054E4E9CF109289010E94CE00C0907501AD
:1011F000D0907601E0907701F09078019B01AC01EE
:101200002C193D094E095F0969017A0132EEC316B6
:1012100034E0D306E104F10408F4A3C0609375013F
:101220007093760180937701909378018091AF025B
:10123000882309F453C06091B3027091B402809185
:10124000B5029091B602682B792B706C8091B70231
:101250009091B802682B792B8091B902811160615D
:101260008091BA02811168608091BB028111646033
:101270008091BC02EB01C82B2091B0028091BE028C
:101280009091BF0231E03093E1012093030210926C
:10129000E20110920402DC01ED91FC910190F081D9
:1012A000E02D61E009958091BE029091BF02DC01C2
:1012B000ED91FC910190F081E02D6D2F09958091C9
:1012C000BE029091BF02DC01ED91FC910190F08192
:1012D000E02D6C2F099581E00E94770261E08091FA
:1012E000B0020E94510497FFF9CF60E08091B002F4
:1012F0000E9451042091B202222329F002C0959548
:1013000087952A95E2F7F0907401CF2DD0E0CC0FAD
:10131000DD1FC758DE4FBC01990F880B990B0E9447
:101320006B0A2091700130917101409172015091CE
:1013300073010E94F70A20E030E04AE754E40E947B
:10134000F70A0E94330A7983688377FF02C070E04E
:1013500060E07983688381E08F0D883050F480935A
:1013600074010E945F01882309F4E1CE0E946901A3
:10137000DECE10927401F5CF6FE672E183E890E45F
:1013800014CF0E94D5090C94BD0A0E94B60A58F0E9
:101390000E94AF0A40F029F45F3F29F00C94A60A9E
:1013A00051110C94F10A0C94AC0A0E94CE0A68F315
:1013B0009923B1F3552391F3951B550BBB27AA270E
:1013C00062177307840738F09F5F5F4F220F331F48
:1013D000441FAA1FA9F335D00E2E3AF0E0E832D010
:1013E00091505040E695001CCAF72BD0FE2F29D013
:1013F000660F771F881FBB1F261737074807AB07E5
:10140000B0E809F0BB0B802DBF01FF2793585F4F59
:101410003AF09E3F510578F00C94A60A0C94F10A1C
:101420005F3FE4F3983ED4F3869577956795B7953B
:10143000F7959F5FC9F7880F911D9695879597F946
:101440000895E1E0660F771F881FBB1F62177307BF
:101450008407BA0720F0621B730B840BBA0BEE1FD4
:1014600088F7E09508950E943A0A6894B1110C94A7
:10147000F10A08950E94D60A88F09F5798F0B92F74
:101480009927B751B0F0E1F0660F771F881F991FB9
:101490001AF0BA95C9F714C0B13091F00E94F00A61
:1014A000B1E008950C94F00A672F782F8827B85F71
:1014B00039F0B93FCCF3869577956795B395D9F711
:1014C0003EF490958095709561957F4F8F4F9F4F1B
:1014D0000895E89409C097FB3EF490958095709527
:1014E00061957F4F8F4F9F4F9923A9F0F92F96E970
:1014F000BB279395F695879577956795B795F111E5
:10150000F8CFFAF4BB0F11F460FF1BC06F5F7F4F81
:101510008F4F9F4F16C0882311F096E911C0772393
:1015200021F09EE8872F762F05C0662371F096E89C
:10153000862F70E060E02AF09A95660F771F881F6B
:10154000DAF7880F9695879597F9089597F99F6729
:1015500080E870E060E008959FEF80EC089500243B
:101560000A941616170618060906089500240A9408
:1015700012161306140605060895092E0394000C8E
:1015800011F4882352F0BB0F40F4BF2B11F460FF1D
:1015900004C06F5F7F4F8F4F9F4F089557FD905846
:1015A000440F551F59F05F3F71F04795880F97FB27
:1015B000991F61F09F3F79F08795089512161306E1
:1015C0001406551FF2CF4695F1DF08C01616170610
:1015D0001806991FF1CF8695710561050894089545
:1015E000E894BB2766277727CB0197F908950E94D7
:1015F0000A0B0C94BD0A0E94AF0A38F00E94B60A8A
:1016000020F0952311F00C94A60A0C94AC0A112436
:101610000C94F10A0E94CE0A70F3959FC1F3950FC6
:1016200050E0551F629FF001729FBB27F00DB11D66
:10163000639FAA27F00DB11DAA1F649F6627B00DF6
:10164000A11D661F829F2227B00DA11D621F739FDF
:10165000B00DA11D621F839FA00D611D221F749FED
:101660003327A00D611D231F849F600D211D822F34
:10167000762F6A2F11249F5750409AF0F1F088235B
:101680004AF0EE0FFF1FBB1F661F771F881F915088
:101690005040A9F79E3F510580F00C94A60A0C9487
:1016A000F10A5F3FE4F3983ED4F38695779567950A
:1016B000B795F795E7959F5FC1F7FE2B880F911DB2
:1016C0009695879597F90895A1E21A2EAA1BBB1B40
:1016D000FD010DC0AA1FBB1FEE1FFF1FA217B307FE
:1016E000E407F50720F0A21BB30BE40BF50B661F14
:1016F000771F881F991F1A9469F7609570958095D8
:1017000090959B01AC01BD01CF010895EE0FFF1F25
:0C1710000590F491E02D0994F894FFCFAF
:10171C0000000000A401F5002201F1015301310188
:10172C00450100000000D103A40300047A039D03CB
:08173C008A037B030D0A000083
:00000001FF
